:020000040000FA
:06000000FBEF15F01200F9
:0600080004EF08F01200F5
:060018000CEF08F01200DD
:06100000FBEF15F01200E9
:021006001200D6
:061008009CEF0EF0120047
:06101800E7EF0EF01200EC
:02101E000100CF
:0C102000122C0000CE0500000B000000A8
:04102C0067EC0EF06F
:10103000A394676A656A6A6A61EC0EF0FCEC0DF0D5
:10104000DF6ADF500B6E0C6A080E0B5C000E0C584A
:1010500010E2DF50040DF3CFE9FFF4CFEAFF000EFA
:10106000E926040EEA22EE6AEE6AEE6AEE6ADF2AEA
:10107000E8D7608C636A6098609C65A607D0659627
:101080000501B36BB86BB96BBA6BF7D70501010EED
:10109000CA6FCB6FCC6BCD6BC06BDF6A020EDF5CAF
:1010A00011E2EA6ADF346AEC0EF0EA22EE6AED6AD7
:1010B000EA6ADF3471EC0EF0EA22EE6AED6AB5EC12
:1010C0000DF0ECD70501080EAB6F040EAC6F160ED9
:1010D0006A6E0401200E026F040E036F080E016F8A
:1010E000840E006F0501A16BA06BE55287EF0DF038
:1010F00067EC0EF00501A00507E160BA05D0656A4E
:1011000064806488020EA06F6550040B05E0645093
:10111000040B02E065943FDB60B245D06550010BE3
:1011200009E06450010B06E081DFA3840501040E91
:10113000A06F65906550100B05E06450100B02E045
:1011400020DB659865AC0FD064AC05D003EC0EF0E5
:10115000730E74EC0DF0659C0501C85101E0C807E1
:10116000C85101E109D96550200B04E06450200BFF
:1011700001E0F7DA6550020B0BE06450020B08E067
:1011800003EC0EF0E6687F0EE66E78EC0EF0676A10
:10119000040E0501E76EA019E8AE02D0E73402D0D4
:1011A000E750A05D02E2A4942ED064A62BD0DF6AA3
:1011B000040EDF5C27E265A625D061CFC1F50501ED
:1011C000C151780BE842E842E842C26F6596C1B56A
:1011D00004D0C2517FEC0EF003D0C25184EC0EF06B
:1011E000EA22EF70C25102E1E2DA0AD0000EE66EA6
:1011F000E66AC10EE66E050EE66E720E74EC0DF038
:10120000DF2AD6D7A494E55287EF0DF03BEC0EF021
:10121000FD0EDBA403D0E66AECEC0DF0FD0EDBA2C4
:1012200004D0010EE66EECEC0DF0FE0EDB500C6A05
:101230006A0F0B6E0F0EE6EC0DF078EC0DF0FD0E64
:10124000DBCFEFFF020EE15C02E2E16AE552E16E04
:1012500087EF0DF03BEC0EF0FD0EDB5003E06FEC82
:101260000DF002D0A6EC0DF0D2EC0DF0D9CFE9FFD5
:10127000DACFEAFFEE50ED1003E1F36AF46A28D00A
:1012800078EC0DF093EC0EF0FB0EDBCFEEFFFC0ED6
:10129000DBCFEDFF78EC0DF0EE52FA0EDBCFEFFF77
:1012A000400E89EC0EF0880E98EC0EF0FD0EDB502F
:1012B00003E06FEC0DF002D0A6EC0DF0EA22EF7423
:1012C000DECF0BF0DDCF0CF00BC0F3FF0CC0F4FF52
:1012D000020EE15C02E2E16AE552E16E87EF0DF099
:1012E0003BEC0EF0FE0EDB5003E149EC0EF009D0B2
:1012F000ABEC0DF029EC0EF0ABEC0DF0010F29EC8E
:101300000EF0020EE15C02E2E16AE552E16E87EF67
:101310000DF082EC0DF060A816D05AEC0EF0400EE5
:10132000EE16EE6AEE6AEE6A5AEC0EF0EE7CD7DB51
:10133000EA22EF74400E0B6E5AEC0EF00B50EF16D3
:101340005AEC0EF0EF7CE3D3606A646A0501A06B8F
:1013500012000501A0510FE1606A646AFCEC0DF017
:10136000D08EA584A384F28E60B602D06086FCD7AE
:101370000501010EA06F12000501CA5122E1010E04
:10138000CA6FCB511EE1010ECB6F020EB05D07E1BB
:10139000B4DBEE52EF6AB1DBC80EEF6E1200B0059F
:1013A00010E1C36BC0DBEE52080EEF6EBCDB35EC18
:1013B0000EF0B9DB840EEF6E010EC36F8CDB800E76
:1013C000EF6E12000501CC6BCD6B020EB05D06E135
:1013D0008DEC0EF0ADDB24EC0EF010D0B451040116
:1013E000265D0501B5510401275904E226C4B4F570
:1013F00027C4B5F561D881DB9BDB7FDBC80EEF6EC0
:1014000012003BEC0EF0000EDE6E040EDD6EA3DB70
:10141000040DF4CF0CF0D9CFE9FFDACFEAFFF35097
:10142000EE260C50ED2264DBEF9EFD0EDB5002E158
:101430008DDB01D054DBEA22DECFEEFFDDCFEDFF06
:1014400057DBEF9C55DB040EE926000EEA22EF8CF9
:10145000020EE15C02E2E16AE552E16E58D3609867
:101460000501B3BF0DD0B8AF09D0020EB06FCD519A
:1014700001E1A8DF0501CB6BCA6B120049EF0EF04A
:10148000040120AF0DD00501010EB06FCC5101E178
:1014900099DF0501CB6BCA6BC9510DE1BCEF09F0B7
:1014A0000501020EB06F17DB840EEF6ECB6BCA6BBB
:1014B000C95101E161DF120067EC0EF0080EDF6E2A
:1014C0000501B45D000EB5590AE2B4C5DFFFAF51A6
:1014D00002E1010E03D0AF0502E1020EAF6FDF5053
:1014E0000C6AE850B45DB46F0C50B559B56F05DBAC
:1014F000EE52DFCFEFFF280EBD6F040EBE6FB3B10B
:101500000DD0DF5017E0B1C5F6FFB2C5F7FFB12B24
:10151000000EB2230800F55038DBF3D7DF500AE0A5
:10152000B1C5E9FFB2C5EAFFB12B000EB223EF50FF
:101530002CDBF4D7E552EBD29EDBF5DAEE52EFCF9F
:10154000DFFFDFCF0BF00B500501B95D000EBA597C
:1015500002E2B9C5DFFFDF500B6E0C6AE850B95DDF
:10156000B96F0C50BA59BA6F010EDB6ADF50F36ED7
:10157000010EDBCFF4FFF350F45C16E2010EDB50FA
:10158000EA6A280FE96E040EEA22EF50E66EB6C54D
:10159000E9FFB7C5EAFFB62B000EB723E552E750C7
:1015A000EF6E010EDB2AE2D7000ED880B955000E8F
:1015B000BA550DE2B2DBBCDAB6DAEF50400B03E10C
:1015C00043DBC80E02D040DB880EEF6E12D083DA08
:1015D000840EEF6EBB51BC1107E005D0BCC5FAFF0D
:1015E0000501BB51F96EFADF0501B89FC95101E150
:1015F000C3DE020EE15C02E2E16AE552E16E87D2EF
:1016000066DB0501B38F5DDB200EE66EE66AE66AF7
:10161000000EE66E040E92DA608CDF6A020EDF5C6A
:1016200002E2A3DAFBD70BDBA20EE66E050E86DA2A
:10163000609C0501080EAB6F040EAC6F000EA36F2B
:10164000040EA46FA3C5A5F5A66F22C4A1F5A151F0
:1016500002E1100E0BD0010EE66EE66AA10EE66EF8
:10166000050EE66E010E40DA0501200EA06FE55270
:101670004ED2800E0401205D38E10501C00EB36F2B
:1016800004012351030A1AE0010A09E0030A2BE1CD
:1016900005019E0EB16F280EB26F120E1ED0C1DA78
:1016A0005B0EF626290EA0DA020E0501B3DAF5CF9D
:1016B000B4F5030EAFDAF5CFB5F51200030E225DD7
:1016C0000FE2AFDA5D0EF626290E8EDAB1C5F6FF0F
:1016D000B2C5F7FF0800F5500501B46FB56B1200F5
:1016E0000501B36B12000501B36B1200C4DA0401EB
:1016F000286B296B20511F0B020A11E0030A0CE032
:10170000010A1EE10501B38F040128810501BF050F
:1017100017E10401288314D00501B38F11D005010E
:10172000B38F040124BF02D0BBDA01D0BEDA3ADAAB
:10173000C4DA06E0DDD9EF50040B02E0010E286F99
:101740000501B3AF07D0280EB16F040EB26FB3819D
:10175000020EB46F020EE15C02E2E16AE552E16E54
:10176000D6D16AA00CD0DFD9EF50800807E1C5D9E7
:10177000EF50840803E1D7D98C0EEF6E6A90659A1A
:1017800012006484659860820501010EC06F10DA52
:10179000750E74EF0DF00501C06B0ADA740EA4D952
:1017A0006092649465A402D06594FCD712008FDA2D
:1017B00005012D0EC86FFD0EC11539E17E0EC11554
:1017C000E8407F0B040DF3CFA3F5F4CFA4F5000E92
:1017D000A327040EA423A3C5A5F5A4C5A6F5A57546
:1017E000A2D9EF503C0BE842E8420D081EE1DF6A47
:1017F000080EDF5C16E297D9020EE926000EBFD96B
:10180000EF50E66EDF50EA6A200FE96E040EEA221E
:10181000E552E750EF6E87D986DAEE2AEF22DF2A0B
:10182000E7D781D922DA0AD807D023D805D0FD0E10
:10183000C115040801E12CD8E55269D10501AF6B4F
:10184000C96BCC6BCD6BC36BB06B57D9EF9EAB75CF
:1018500054D9EF9EAB75F8D9EF9EB36BB46BB56BF3
:10186000B86BB96BBA6B4ED8A3D9030E3DD92FEF25
:101870000AF0020E0501B05D02E19CEF0AF0B06BC8
:10188000C35104E128D98C0EEF6E1200C36B120015
:101890001EDA33D9EF50400B01E0010EDF6E050177
:1018A000AB75080EA05D08E122C463FF635002E03F
:1018B000100E01D0040EA06FB00513E11ED938D967
:1018C000FBDD020E0501AF5D03E117D9840E07D0E1
:1018D000DF5003E112D9C80E02D00FD9880EEF6E87
:1018E0000FD0B8AF0CD0BB51BC1107E005D0BCC5C0
:1018F000FAFF0501BB51F96EFADF0501B89FB06B25
:10190000E55205D104012051600BE842E842E8426B
:10191000E842E842000901E0120021510C0A45E0CA
:101920000B0A3FE00C0A31E0010A22E00B0A1EE03C
:10193000020A1CE0030A18E0080A10E0010A0CE0A1
:101940000F0A08E0030A01E012000501B38F080E38
:10195000A06F120039EF0BF000EF0BF00501A10EA4
:10196000B16F050EB26F0CD076EF0BF0D6EF0CF026
:1019700024510501B16FB26BA20EB127050EB2233F
:10198000B381010EB46FB38F12000501B38F040150
:101990002451EA6AA20FE96E050EEA2222C4EFFF83
:1019A000120006D9020E74EF0DF01200ABD8050E2E
:1019B000E1260401220510E120511F0B00090CE172
:1019C0000501B38F030E0401215D04E10501010E41
:1019D000BF6F02D00501BF6B0401225101E074D03A
:1019E00020511F0B020870E124510F0B00096CE01D
:1019F00024510F0B010868E3200E0501A05D64E18E
:101A0000B38F040124BF04D04BD9CCD8D7D803D08E
:101A10004CD9C8D8D7D8EA22020EEFCFDBFF08D9BD
:101A2000010B03E1000EDF9401D0DF8424BF02D05C
:101A300037D901D03AD9EA22DECFEEFFDDCFEDFF74
:101A4000030E215D0CE139D907E024BF02D0B6D8DE
:101A500001D0B8D8EA22EF82840E6AD935D0DF747B
:101A60002CD906E045D8EF9E43D8EF8C08D902D098
:101A70003FD8EF8CDF74DCD8020B02E11ED90DE0F9
:101A8000040124BF02D09AD801D09CD8EA22EF9258
:101A90003B0E0B6E3ED9F3D802D03B0E3AD904016F
:101AA00024510F0B0C6A6A0F0B6E0F0E0C22030EE3
:101AB0000BC0DBFF040E0CC0DBFF030EDBCFE9FF26
:101AC000040EDBCFEAFFEF90050EE15C02E2E16A73
:101AD000E552E16E1CD021D9C8D824EF0EF0FE0EDD
:101AE000EA6ADB346AEF0EF0E66EE66A78EF0EF033
:101AF000DECFE9FFDDCFEAFF1200ABC5E9FFACC5E1
:101B0000EAFF1200D9CFE6FFE1CFD9FF1200E5527C
:101B1000E7CFD9FF120024510F0BE96EEA6AD89083
:101B2000E936EA361200A3C5E9FFA4C5EAFF1200B0
:101B3000FAD8280EEE6E040EED6E1200E66EBAECC8
:101B400015F00B6E050EE15E0B501200FE0EEA6AF8
:101B5000DB3471EF0EF0FD0EDB50E8240D6EFE0E4F
:101B6000DB50040DF3500D241200DF50CDD8EA22D3
:101B7000EF6ADF50C4D8EA22EF6ADF2A1200EA22B5
:101B8000EE50EFCFEAFFE96E1200E66EBDC5E9FF49
:101B9000BEC5EAFFBD2B000EBE23E552E750EF6E37
:101BA000DF061200EA22EECFDEFFEDCFDDFF1200EE
:101BB000000EE66EE66AE66EE66A120024510F0B2E
:101BC0007FEF0EF024510F0B84EF0EF00C220BC0B0
:101BD000DEFF0CC0DDFF1200FE0EDBCFE6FF01ECE6
:101BE0000AF0E552E5521200F7220900F5CFB1F5EF
:101BF0000A00F5CFB2F51200160E626E9F0E666EE9
:101C00007B0E646E1200010EE66EE66A000EE66E52
:101C1000E66A1200F76AB125F66EB251F7220800A3
:101C200012002251F66EF76AD890F636F736120097
:101C3000D950020FE96EDACFEAFFEF501200010E21
:101C4000E66EE66AE66A1200A5C5E9FFA6C5EAFFE8
:101C50001200040DF3CF0BF0F4CF0CF0000E0B26A6
:101C6000040EB4DF840E98EF0EF05DD8200EEE6EF9
:101C7000040EED6E120046DF020EE1261200020E87
:101C8000E66EE66ADECFE6FFDDCFE6FF050E74EF17
:101C90000DF021DF8C0EEF6E30DF840EEF6E120040
:101CA0003ADFA70EE926050E120035DFAB0EE92656
:101CB000050E120014DFBFEF0DF01ADFEF50800B9E
:101CC0001200BDDF6B0EE66E0F0E9EEF0DF01ADFF9
:101CD000E6521200FE0BEA36E96EAB0EE926050E5F
:101CE0001200FE0BEA36E96EA70EE926050E120079
:101CF00079EC13F00B6E060EE15E0B501200EA6AEF
:101D0000C60FE96E050E1200EA6AC40FE96E050EF1
:101D10001200EEDEE850EF16120096DFEE52080ECB
:101D2000EF6E24EF0EF0020EE926000EEA221200FA
:081D3000DFDEE850EF121200A3
:081D3800DACFE4FFE2CFDAFF8D
:101D4000E9CFE4FFEACFE4FFF6CFE4FFF7CFE4FF0B
:101D5000F5CFE4FFF3CFE4FFF4CFE4FFFACFE4FFE5
:101D600000EE00F00B0EE80403E3EECFE4FFFBD738
:101D700000EE0BF0030EE80403E3EECFE4FFFBD725
:101D8000E65278EC08F0E55200EE0DF0030EE804A0
:101D900003E3E5CFEDFFFBD700EE0AF00B0EE804FE
:101DA00003E3E5CFEDFFFBD7E5CFFAFFE5CFF4FF87
:101DB000E5CFF3FFE5CFF5FFE5CFF7FFE5CFF6FF82
:101DC000E5CFEAFFE5CFE9FFE5CFDAFF1100D8CF95
:101DD000E4FFE0CFE4FFE46EDACFE4FFE652E55241
:101DE000E5CFDAFFE550E5CFE0FFE5CFD8FF100003
:101DF0000F015D959484C70EBB6E0C0EBD6E640E14
:101E0000BE6E060EBA12949412009586949483B610
:101E100003D0040E8B6E12008B941200C4EC13F0EE
:101E2000FAEC13F0FD0EDB5005E014EC14F0FC0EA0
:101E3000DBCFEFFF14EC14F0EF500B6E020EE15C01
:101E400002E2E16AE552E16E0B50C9EF13F0C4EC17
:101E500013F0FAEC13F0FC0EDB5024E0FB0EDB5029
:101E600011E0FB0EDB50F36EFD0EDB5004E0D8906A
:101E7000F336E806FCE1F3500B6E14EC14F0F3506B
:101E8000EF1210D0010EF36EFD0EDB5004E0D8907F
:101E9000F336E806FCE1F350F31C0B6E14EC14F07F
:101EA000E850EF16010EF36EFD0EDB5004E0D89003
:101EB000F336E806FCE1F3500B6E14EC14F0EF502F
:101EC000F31402E0010E01D0000E0B6E020EE15C75
:101ED00002E2E16AE552E16E0B50C9EF13F004D85B
:101EE000A9EC09F03BD8FED70F0EC112800E9B6EF5
:101EF000700ED36E100ED26ED2AEFED7B50EE96E56
:101F00000F0EEA6E900EEF6E0F01030E5B6F5C6BAF
:101F10005D6B5E6B5F6B02D816EF08F08B94949448
:101F20009586938A9588958A959C959E4D0EE66E2A
:101F3000E66A1C0EE66E62EC15F0E552E552E552DB
:101F400092800F012CEC14F092802CEC14F005011F
:101F5000D26BD36BD46BD56BD66B1200C4EC13F081
:101F6000150EE1260501D65101E04FDB200E0501DB
:101F7000E76EA019E8AE02D0E73402D0E750A05DCA
:101F800001E283D26050020B01E07FD20501D25101
:101F9000D31102E1000E08D0D2C5E9FFD3C5EAFF94
:101FA000EF50800B01E0010E000901E06ED2050147
:101FB00000519B0A01E145D2010A01E127D2030A3F
:101FC00001E109D2010A01E1F1D1A00A01E1D1D177
:101FD0000F0A01E1B3D1BE0A01E1AAD1010A01E170
:101FE0008FD10F0A01E17AD1010A01E161D1030A1F
:101FF00001E149D1010A01E117D1070A01E1E5D068
:10200000010A01E1AED0030A01E197D0010A01E122
:102010007ED0D20A01E176D0030A61E0010A55E0E0
:10202000180A43E00F0A31E0010A2BE0030A25E019
:10203000010A13E0070A0FE0010A09E0030A05E0BC
:10204000010A01E021D23ADA1FD245DA1DD201C5D8
:10205000E6FF48DA5AD053DA17D255DA0501516F44
:10206000440E506FB6DB02E1000E03D086DB01E0C8
:10207000010E000901E008D219D101C5E6FF48DAD6
:1020800044D001C5E6FF4CDA40D053DA0501516F68
:10209000470E506F9EDB02E1000E03D06EDB01E0C5
:1020A000010E000901E0F0D101D149DA0501516FBB
:1020B000480E506F8EDB02E1000E03D05EDB01E0C4
:1020C000010E000901E0E0D1F1D003C5E6FF02C531
:1020D000E6FF01C5E6FF36DAE552E55216D001C546
:1020E000E6FF82DAE5520501516F510E506F71DB48
:1020F00002E1000E03D041DB01E0010E000901E026
:10210000C3D1D4D001C5E6FF75DAE552BDD10501D2
:10211000D66B8B50040B01E0010E0B6E8C50020B42
:1021200001E0010E0B5C03E18B748C72ADD18BA4CA
:1021300002D08C82A9D18C92A7D14BDB02E1000E98
:1021400003D01BDB01E0010E000901E09DD1050178
:10215000810E506F83A603D0010E516FA7D0516B33
:10216000A5D037DB02E1000E03D007DB01E0010E52
:10217000000901E089D10501820E506F010505E1DA
:102180008350100B01E0010EDF6E020E015D05E1D0
:102190008350200B01E0010EDF6E030E015D05E1AF
:1021A0008350400B01E0010EDF6E040E015D05E17E
:1021B0008350800B01E0010EDF6EDF0403E1010EAE
:1021C000516F01D0516B526B71D0020503E1010ECA
:1021D000DF6E04D0025101E057D1DF6A0151040AD9
:1021E0001CE0070A13E0010A0AE0030A01E04CD1EF
:1021F000DF50E8B08C88E8B047D18C9845D1DF50EB
:10220000E8B08C8AE8B040D18C9A3ED1DF50E8B07B
:102210008C8CE8B039D18C9C37D1DF50E8B08C8EF3
:10222000E8B032D18C9E30D1020503E1010EDF6EA1
:1022300004D0025101E028D1DF6A0151040A1CE0F8
:10224000070A13E0010A0AE0030A01E01DD1DF508A
:10225000E8B09588E8B018D1959816D1DF50E8B06D
:10226000958AE8B011D1959A0FD1DF50E8B0958CDE
:10227000E8B00AD1959C08D1DF50E8B0958EE8B05F
:1022800003D1959E01D1A5DA02E1000E03D075DAE3
:1022900001E0010E000901E0F7D00501850E506F45
:1022A000CEC551F5CFC552F5D0C553F576DAECD091
:1022B000010EF36E030EF3CFDBFF040EDB6AACA25C
:1022C000FED7A6DAE66ED4EC15F0E552030EDB2A53
:1022D000040E01E3DB2A9CDAF2E1D6D07ADA02E1DD
:1022E000000E03D04ADA01E0010E000901E0CCD073
:1022F0000501870E506F9EAA19D0010E516FC3D0F1
:1023000068DA02E1000E03D038DA01E0010E0009BC
:1023100001E0BAD00501880E506F9EAA07D0010EC9
:10232000516F9BEC15F00501526FADD0516BABD0E6
:1023300001C5E6FFD4EC15F0E552A6D0010EC26E41
:1023400048DA02E1000E03D018DA01E0010E0009BC
:1023500001E09AD0AAD8050EF3CFDBFF060EF4CF2A
:10236000DBFF0501370E506F050EDBCF51F5060E72
:102370001AD0050EC26E2DDA02E1000E03D0FDD98F
:1023800001E0010E000901E07FD086D8070EF3CFEF
:10239000DBFF080EF4CFDBFF0501380E506F070E90
:1023A000DBCF51F5080EDBCF52F56DD0090E0AC513
:1023B000DBFFE66AE66A47DA0A0E55DA02E1000E4A
:1023C00003D0DBD901E0010E00095EE10501980EA2
:1023D000506F0A0E56D00B0E0AC5DBFF0C0E0BC554
:1023E000DBFFDBCFE6FF010EE66E0B0E2CDA0D0EE7
:1023F0003ADA02E1000E03D0C0D901E0010E000973
:1024000043E10501990E506F0D0E3BD00E0E0AC52B
:10241000DBFF0F0E0BC5DBFFE66AE66ADBCFE6FFEC
:102420000E0E07DA100E1FDA02E1000E03D0A5D956
:1024300001E0010E000928E105019A0E506F100E0F
:1024400020D0110E0AC5DBFF120E0BC5DBFF130EE9
:102450000CC5DBFFDBCFE6FF010EE66E120EDBCF15
:10246000E6FF110EE6D9140EFED902E1000E03D0EC
:1024700084D901E0010E000907E105019B0E506FB0
:10248000140EDBCF51F589D996D9150EE15C02E225
:10249000E16AE552E16E7DD1EED9C2B2FED79DD997
:1024A00002E2E16AE552E16E74D1E5D9C2B2FED72B
:1024B00094D902E2E16AE552E16E6BD19380938296
:1024C0003F0EC716C66AC56AC686C78EC68A1D0E67
:1024D000C86E9E9612001F0EC514FDE1C750040B76
:1024E000FAE1120051D9F7DFFE0EDB5004E1C5809E
:1024F000C5A004D0FDD7C582C5B2FED74AD1C584D8
:10250000C5B4FED71200C550400B01E0010E120009
:10251000AED9C96EC6BE03D0C7B0FED7DCDF39D195
:10252000A6D9E8B0C58AE8A0C59AC588C5B8FED7BF
:1025300030D1D1DFC586C7A0FED7C9501200C7B0C1
:10254000010C000C21D9020EE126FD0EDB5002E148
:10255000020E0CD0FD0EDB0402E1010E07D0FD0ED1
:10256000DB50020802E1DE6A02D0020EDE6EDD6A96
:102570000F015C935C915B9BC66A949E929A9380D8
:102580009392FE0EDB50030A0CE0010A07E0030AF7
:1025900003E0010A0AE109D0C76A09D0400EC76EFC
:1025A00001D0C76A77D9100E04D0400EC76E72D919
:1025B000000E0B10C66EFC0EDB5002E1C79E0BD066
:1025C000FC0EDB0407E1800EC75C02E1000E03D0C5
:1025D000010E01D0C79EC68A898A020EE15C02E222
:1025E000E16AE552E16ED5D042D9C96EC7A0FED7E7
:1025F000C950CFD03CD902E1899A06D0FE0EDB0447
:1026000002E1898A01D0899AC4D00501D751D81135
:1026100004E1100ED76F270ED86FD707000ED85BD6
:1026200060A207D0D751D8112EE18B748BB413D090
:1026300027D00501A05102E18B9422D0A00502E130
:102640008B8409D0020EA05D02E18B8419D0040EA8
:10265000A05D03E18B948C821200100EA05D06E158
:102660000501D751D8110FE18B740AD0200EA05D5F
:102670000AE10501D751D81106E18B748BA402D071
:102680008C9212008C8212001200120012001200B2
:10269000B2EF14F012001E0EE66E010EE66E06ECAE
:1026A00009F0E552E552DBEF13F00501BF0520E12B
:1026B0000501C0051DE1A394E8DF60920501C06B30
:1026C0000501100EE56F0E0EE66FE507000EE65BE6
:1026D000E551E611FAE16084080EE56F070EE66F3A
:1026E000E507000EE65BE551E611FAE16094A3848C
:1026F00012004AD8FD0EDBCF06F0FE0EDBCF07F04E
:10270000050E061801E1075036E0E868061802E1F8
:102710007F0E07182FE0030E061801E1075028E08E
:10272000020E061801E1075021E0010E061801E132
:1027300007501AE0740E061801E1075013E0750EF9
:10274000061801E107500CE0730E061801E107506E
:1027500005E0720E06180FE107500DD097DF0BD081
:1027600093DF09D092DF07D096DF05D093DF03D047
:102770008FDF01D08CDF010E0CD0D4C5E9FFD5C5A9
:10278000EAFFEF50800B1200D9CFE6FFE1CFD9FF6F
:102790001200E552E7CFD9FF1200400EE66E500E50
:1027A000E66E050EE66E010EE66E6CD8F3CFD4F53C
:1027B000F4CFD5F51200400EE66E000EE66E050E63
:1027C000E66EE66A010E5ED8F3CFD2F5F4CFD3F50C
:1027D00012000501D451D5111200C350DF6E010E55
:1027E000C4CFDBFF57D80BC0F3FF0CC0F4FF020EC1
:1027F000E15C1200020EE126FE0EDB500C6A000FB7
:102800000B6E0F0E0C220BC0DEFF0CC0DDFF1200A2
:10281000030EDBCFE9FF040EDBCFEAFF000EE92653
:10282000050EEA22EF501200DECFE9FFDDCFEAFF0E
:102830001200DBCFE6FF27EC0FF0E552E552E55240
:10284000E552E76E1200DBCFE6FF0EEC0FF0E5522B
:10285000E552E552E76E12005B81C16ABE0EC06EA2
:10286000010EC26E1200E7CFDBFFE9EF13F08CDF41
:10287000FE0EDB50120088DF020EE126DE6ADD6A02
:10288000C2821200E66E2AEC09F00B6E050EE15EC4
:0E2890000B501200DECF0BF0DDCF0CF012006B
:02289E00120125
:1028A000000200000008D8043F00020001020001FD
:1028B00009022900010100C03209040000020300DE
:1028C0000000092111010001221C000705810340BD
:1028D0000001070501034000010403090434034D0E
:1028E000006900630072006F006300680069007097
:1028F00000200054006500630068006E006F006CEB
:10290000006F0067007900200049006E0063002E10
:10291000002E03530069006D0070006C00650020FC
:10292000004800490044002000440065007600692A
:1029300000630065002000440065006D006F000624
:1029400000FF0901A1011901294015012540750861
:1029500095408100190129409100C0B028D928DD97
:0329600028112912
:0C296400040120511F0B010801E01200CB
:10297000245101E01200060E215D1BE12351230AC0
:1029800018E0010A0CE0030A14E10501A10511E1B8
:102990000501C20EB16F280EB26F090E06D00501F7
:1029A0003F0EB16F290EB26F1C0EB46FB56BC00E27
:1029B000B36F04012051600BE842E842E842E8426C
:1029C000E842010801E0120021510B0A26E0080A42
:1029D00019E0090A11E0080A05E00B0A23E0080AD9
:1029E00021E012000501E30EB16F050EB26F010E7A
:1029F000B46FB56BC10E0FD00501800EB36F23C449
:102A0000E3F512000501E40EB16F050EB26F010E81
:102A1000B46FB56B810EB36F12000501800EB36FFA
:062A200022C4E4F51200DF
:0A2A26001E0EF66E100EF76E000E85
:102A3000F86E05010900F550DE6F0900F550DF6FF3
:102A400003E1DE6701D03DD00900F550D96F0900E0
:102A5000F550DA6F0900F550DB6F09000900F550F9
:102A6000E96E0900F550EA6E090009000900F55009
:102A7000DC6F0900F550DD6F09000900F6CFE0F5C5
:102A8000F7CFE1F5F8CFE2F5D9C5F6FFDAC5F7FFE4
:102A9000DBC5F8FF0501DC5302E1DD5307E0090067
:102AA000F550EE6EDC07F8E2DD07F9D7E0C5F6FF7A
:102AB000E1C5F7FFE2C5F8FF0501DE07000EDF5BA9
:042AC000BFD712006A
:0C2AC400D9CFE6FFDACFE6FFE1CFD9FF63
:102AD000E2CFDAFFAC6AAB6AFD0EDBB0AC88DBA2FA
:102AE00002D0AC8CAB8CDBB4AC8EDBA602D0AB8856
:102AF00001D0AB8ADBB8AC84DBBAAB86DBAC02D0EE
:102B00009D8A01D09D9ADBAE02D09D8801D09D9810
:102B1000FB0EDB50AF6EFC0EDBCF0CF00CC00BF0ED
:102B20000C6A0B50B06EAC8AAB8EE552E5CFDAFF83
:062B3000E7CFD9FF1200FF
:0A2B3600D9CFE6FFDACFE6FFE1CFCA
:102B4000D9FFE2CFDAFFE652F20E0501E717ABAC90
:102B500003D0E791ABB0E781ABB4E785ABB2E787D1
:102B6000AE50DF6EDF50E552E552E5CFDAFFE7CF3A
:042B7000D9FF120077
:0C2B7400FE0EE3CFE9FFFF0EE3CFEAFF07
:102B8000E9CFF3FFEACFF4FFFB0EE35003E1FC0EC5
:102B9000E35009E0FB0EE30602E2FC0EE306FD0E45
:082BA000E350EE6EF1D71200C4
:082BA800D9CFE6FFDACFE6FF0A
:102BB000E1CFD9FFE2CFDAFFACAC04D0AC90050195
:102BC000E7B3AC80FD0EDB50AD6EE552E5CFDAFF2A
:062BD000E7CFD9FF12005F
:0A2BD600000EF36E00EE00F0080E92
:102BE00001D81200EA6002D0EE6AFCD7F350E96027
:062BF0001200EE6AFCD7A2
:0A2BF60013EE00F023EE00F0F86A81
:102C00000A9C13EC15F003EC08F06FEC0FF0FBD707
:022C10001200B0
:0B2C1200303530000000000001000021
:020000040030CA
:0100000021DE
:0100010008F6
:010002001FDE
:010003003EBE
:010005009169
:010006008178
:00000001FF
